:1000000000000220495D0100715D0100735D010087
:10001000755D0100775D0100795D01000000000061
:100020000000000000000000000000007B5D0100F7
:100030007D5D0100000000007F5D0100815D010029
:10004000835D0100835D0100E95B0100AD5B0100A0
:10005000C15B0100835D0100C54C01009963010093
:10006000D1570100D9570100E1570100835D01001C
:10007000835D0100835D0100835D0100835D0100FC
:10008000835D0100835D0100835D0100835D0100EC
:10009000835D0100835D0100835D0100835D0100DC
:1000A000835D0100835D0100E9570100F157010004
:1000B000835D0100835D010000000000000000007E
:1000C000835D0100835D0100835D0100D55B01005C
:1000D000835D0100835D0100835D0100835D01009C
:1000E000115C0100000000000000000000000000A2
:1000F00000000000835D010000000000FD5B0100C6
:1001000000000000000000000000000000000000EF
:1001100000000000000000000000000000000000DF
:1001200000000000000000000000000000000000CF
:1001300000000000000000000000000000000000BF
:1001400000000000000000000000000000000000AF
:10015000000000000000000000000000000000009F
:10016000000000000000000000000000000000008F
:10017000000000000000000000000000000000007F
:10018000000000000000000000000000000000006F
:10019000000000000000000000000000000000005F
:1001A000000000000000000000000000000000004F
:1001B000000000000000000000000000000000003F
:1001C000000000000000000000000000000000002F
:1001D000000000000000000000000000000000001F
:1001E000000000000000000000000000000000000F
:1001F00000000000000000000000000000000000FF
:100200007CB0EE877CB0EE87FF00FF00FF00FF00B0
:10021000FF00FF00FF00FF00FF00FF00FF00FF00E6
:10022000FF00FF00FF00FF00FF00FF00FF00FF00D6
:10023000FF00FF00FF00FF002DE9F04F85B00391A4
:100240000778A7F10903042B044607F07F0200F1A9
:100250000100F5D9202AF3D02B2F04BF677804467C
:100260002D2F72D09FED427B8DED007B4FF000086B
:100270004FF000098FB34FF0000E4FF0000ADFF887
:1002800000B1754619E018F0C5FE80468946304633
:1002900018F05AFE42464B4618F00AFD5246804678
:1002A00089465B46DDE9000135B318F0DDFFCDE995
:1002B0000001AE4614F8017F7FB1A7F13006092E88
:1002C00052465B4640464946DDD9C5B92E2F16D168
:1002D00014F8017F0125002FEFD142464B46DDE99E
:1002E000000118F097FE80468946039B4046494628
:1002F0001C6005B0BDE8F08F4FF0010EDAE7BEF1EB
:10030000000F29D042464B46DDE9000118F082FE7D
:1003100007F0DF07452F80468946E6D10399601C28
:100320000A2218F0A9FC16490246002019F0D2F959
:1003300002460B464046494618F06CFE8046894608
:100340004046494605B0BDE8F08F9FED0B7B6778CE
:100350008DED007B013489E7DFF828904FF000082D
:100360004046494605B0BDE8F08F00BFAFF30080BE
:10037000000000000000F03F000000000000F0BF9F
:10038000000024400000F87F2DE9F84F16460023B6
:10039000002204460D4619F0AFF8002840F09D8079
:1003A000002200232046294619F09CF828B130226B
:1003B000002332707370BDE8F88F2046294617F08D
:1003C0002BF919F0D7F87BA3D3E9002381462946FE
:1003D000204619F091F8002800F08680B9F1000F4E
:1003E000C0F2BE804A4600206F4919F073F90246F8
:1003F0000B462046294618F037FF04460D4666A1F5
:10040000D1E9000101274FF0000822462B4618F0E1
:1004100001FE0022654B18F04BFC19F097F9002FF4
:10042000CC464FF0FF3AC1464FF0000840F38580BC
:10043000DFF888E15E4C0122AEF1700945F6F32544
:100440004FF02E0BA94208BFA0424FF0300309D352
:10045000001B61EB0501A94208BFA04203F10103A3
:10046000F6D2DBB2337050EA010306F1010409D180
:10047000BA4210DACE4502F101020CD026467EE8DF
:100480000245DFE7BA4204BF86F801B0B41CCE458E
:1004900002F10102F2D1B8F1000F0DD02246302155
:1004A00002F8011BC2F1010353442344002BF7DC83
:1004B0002AEAEA7301331C44BCF1010F4CD06523D6
:1004C000BCF1000F2370C5BF2B236370611CA11CFE
:1004D0006046BDE8F84F0FF04DBE05F100431D46E4
:1004E0002D23337001365BE72DA3D3E9002320468B
:1004F000294619F01FF800287FF470AFB9F10E0FEC
:1005000009F101073DDDA9F10E0842460020264908
:1005100019F0E0F802460B462046294618F0A4FEE2
:100520000022224B18F0C4FB19F010F9002FA9F19A
:100530000F0A4FF0010C3FF77BAF334630222E24D9
:1005400003F8022B74707FEA090618D01E4403F8E2
:10055000012BB342FBD16BE700232370BDE8F88F7A
:10056000C9F100020020104919F0B4F802460B4608
:100570002046294618F04EFD04460D463FE71E462C
:1005800056E7C9F10E0200200749C84619F0A2F843
:100590004FF0010939E700BF0000901EC4BCD642ED
:1005A00050EFE2D6E41A4B44000024400000E03F44
:1005B00000407A108DEDB5A0F7C6B03E58A20100FC
:1005C00070B54FF0FF3006F035FA04466FF07F400B
:1005D00006F030FA0646204618F0A6FC00220C4B26
:1005E00018F018FD044630460D4618F09DFC06A391
:1005F000D3E9002318F038FE02460B462046294670
:1006000018F056FB70BD00BF0000E0DFFFFF6F4336
:100610000000F03D000000002DE9F04F2DED028BB1
:10062000044683B0C06818F08FFC80462069894674
:1006300018F08AFC824660698B4618F085FC0246F9
:1006400001F1004306460F464046494616F090FE2B
:1006500018F0D8FFE062054616F03EFD01902846EE
:1006600016F0EEFC019B0546184618F07FFC42464A
:100670004B4618F0CFFC80462846894618F076FC99
:1006800032463B4618F0C6FC02460B4640464946F9
:1006900018F00CFB02460B465046594616F068FE11
:1006A00018F0B0FF002208EE100A00233046394649
:1006B00018F040FF28B3B5EEC08AF1EE10FA1CDD49
:1006C00011A7D7E9006718EE100A18F04FFC024690
:1006D0000B463046394618F0E9FA32463B4618F0E8
:1006E000E7FA18F08FFFA062E38843F00203E3808B
:1006F00003B0BDEC028BBDE8F08F05A7D7E900671A
:10070000E1E784ED0A8AEFE7EA2E4454FB21F93F42
:10071000EA2E4454FB21F9BF08B511F019F8DFEDBA
:100720000C7A07EE100A67EE277A17EE900A18F097
:100730001DFC05A3D3E9002318F096FD18F01AFF5D
:1007400008BD00BFAFF30080EA2E4454FB211940DE
:100750000000B4430000000008B511F00DF8DFED13
:100760000C7A07EE100A67EE277A17EE900A18F057
:10077000FDFB05A3D3E9002318F076FD18F0FAFE7F
:1007800008BD00BFAFF30080EA2E4454FB2119409E
:100790000000B44300000000494A21F000439342A6
:1007A0002DE9704304460D464BDC464A93420E4603
:1007B0000EDC3FA3D3E9002318F07AFA0022424B63
:1007C00018F0B8FE00284CD020462946BDE87083BA
:1007D0003E4A93423BDCB3F1804F42DD16F016FBFC
:1007E0002246804689462B462046294618F012FCB0
:1007F0000022354B18F05CFA17F0CCF902460B4694
:100800004046494618F054FA02460B4600202E494D
:1008100018F02AFD424604460D464B4640464946DE
:1008200018F046FA02460B462046294618F040FAD0
:1008300002F06AF8002EC9DC01F100431946BDE858
:10084000708302460B4618F033FABDE8708316F049
:10085000DDFA02F059F818A3D3E9002318F028FABA
:10086000E8E722462B462046294618F0D3FB80466F
:1008700089462046294616F0C9FA002204460D464C
:10088000114B4046494618F013FA17F083F900223D
:100890000D4B18F00DFA02460B464046494618F03B
:1008A000E3FC22462B4618F003FA00F0C5FAC1E734
:1008B0009C7500883CE4377EEF39FAFE422EE63F15
:1008C000FFFFEF7FFFFF2F3E0000F03F0000B04131
:1008D0002DE9F84FC44B21F000469E4204460D46D8
:1008E0008A460EDDC14B9E4200F3AC8000F0A7802B
:1008F000BAF1000F40F3EA809FA1D1E90001BDE801
:10090000F88FBB4B9E4200F3B580A3F1DE739E428D
:1009100040F3A0804FF0FF3B22462B46204629465D
:1009200018F078FB02460B468046894618F072FBA9
:1009300093A3D3E9002306460F4618F06BFB92A35E
:10094000D3E9002318F0B4F932463B4618F062FBB5
:100950008FA3D3E9002318F0ABF932463B4618F0D9
:1009600059FB8DA3D3E9002318F0A2F932463B4688
:1009700018F050FB8AA3D3E9002318F099F9324606
:100980003B4618F047FB88A3D3E9002318F090F901
:1009900042464B4618F03EFB85A3D3E90023804630
:1009A00089463046394618F035FB83A3D3E9002346
:1009B00018F07CF932463B4618F02CFB80A3D3E9B3
:1009C000002318F073F932463B4618F023FB7EA350
:1009D000D3E9002318F06AF932463B4618F01AFBB7
:1009E0007BA3D3E9002318F061F932463B4618F0A7
:1009F00011FBBBF1FF3F02460B466CD04046494617
:100A000018F056F922462B4618F004FB794E7A4B23
:100A10004FEACB0B5E449B44DBE9002318F046F918
:100A200022462B4618F042F902460B46D6E9000151
:100A300018F03CF9BAF1000F43DBBDE8F88F00284D
:100A40003FF456AF22462B462046294618F030F98F
:100A5000BDE8F88F60A3D3E9002318F029F900223C
:100A6000664B18F067FD00283FF454AF2046294636
:100A7000BDE8F88F16F0CAF9614B9E4204460D4658
:100A800039DCA3F550239E425EDC02460B4618F08B
:100A90000FF90022594B18F009F9002206460F46BB
:100AA0004FF080432046294618F002F902460B46D3
:100AB0003046394618F0D8FB4FF0000B04460D467F
:100AC0002AE701F100431946BDE8F88F44A1D1E9B6
:100AD0000001BDE8F88F4046494618F0E9F8224683
:100AE0002B4618F097FA02460B462046294618F086
:100AF000DDF8BDE8F88F434B9E421ADC0022424BE2
:100B000018F0D4F8002206460F463F4B20462946EF
:100B100018F080FA0022394B18F0CAF802460B464A
:100B20003046394618F0A0FB4FF0020B04460D4644
:100B3000F2E602460B460020344918F095FB4FF0D0
:100B4000030B04460D46E7E600222C4B18F0AEF8E6
:100B5000002206460F46294B2046294618F0A8F8E1
:100B600002460B463046394618F07EFB4FF0010B2B
:100B700004460D46D0E600BF182D4454FB21F93F32
:100B800011DA22E33AAD903FEB0D76244B7BA93F7F
:100B9000513DD0A0660DB13F6E204CC5CD45B73F4D
:100BA000FF8300922449C23F0D5555555555D53FF9
:100BB0002F6C6A2C44B4A2BF9AFDDE522DDEAD3FED
:100BC0006D9A74AFF2B0B33F711623FEC671BC3F8D
:100BD000C4EB98999999C93F9C7500883CE4377E8D
:100BE000182D4454FB21F9BFFFFF0F440000F07F94
:100BF000FFFFDB3F68A2010088A201000000F03F78
:100C0000FFFFF23FFF7F03400000F83F0000F0BF0E
:100C10002DE9F843C1F30A59A9F2FF35132D024615
:100C20000B460C4606468846074622DC002D50DB64
:100C3000DFF8F09049FA05F901EA090E5EEA0606C6
:100C40001CD036A3D3E9002318F032F80022002389
:100C500018F070FC48B1002C04DD4FF4801343FA07
:100C600005F5A84428EA0904002721463846BDE8CE
:100C7000F883332D06DDB5F5806F3DD0104619465B
:100C8000BDE8F883A9F213494FF0FF3E2EFA09F9A7
:100C900010EA090FF2D021A3D3E9002318F008F8D5
:100CA0000022002318F046FC0028DED0002C09DDCD
:100CB000142D2BD00127C5F1340507FA05F5AE191F
:100CC00028BFB844444626EA090721463846BDE80D
:100CD000F88312A3D3E9002317F0EAFF00220023D0
:100CE00018F028FC0028C0D0002C0BDB54EA0607C3
:100CF00006D00027084CB8E717F0DAFFBDE8F88304
:100D00003C46B2E700274FF00044AEE704F101088B
:100D1000D8E700BFAFF300800000F03F9C7500886B
:100D20003CE4377EFFFF0F002DE9F041C1F30A5785
:100D3000A7F2FF35132D02460B460C4688460646A1
:100D40001CDC002D3FDB3A4F2F41864601EA070CA1
:100D50005CEA0E0E17D034A3D3E9002317F0A8FFE6
:100D60000022002318F0E6FB20B1002C3FDB28EA2C
:100D70000704002621463046BDE8F081332D06DD0C
:100D8000B5F5806F2FD010461946BDE8F081A7F267
:100D900013474FF0FF3E2EFA07F73842F3D022A355
:100DA000D3E9002317F084FF0022002318F0C2FBD0
:100DB0000028DFD0002C20DB444626EA0706214627
:100DC0003046BDE8F08118A3D3E9002317F070FF87
:100DD0000022002318F0AEFB0028CBD0002C17DB3C
:100DE00000263446C6E717F063FFBDE8F0814FF4F4
:100DF000801343FA05F5A844B9E7142D10D0012358
:100E0000C5F1340503FA05F5AE1928BF9844D3E7B8
:100E100024F00042074B324318BF1C460026A9E7C6
:100E200004F10108C8E700BF9C7500883CE4377EE8
:100E3000FFFF0F000000F0BF2DE9F04FD84B9942A3
:100E400087B0804689460E4613DCD64B21F000441D
:100E50009C4218DD0022D44B18F044FB002879D0C6
:100E6000002200230020D14918F0FEF907B0BDE8A8
:100E7000F08FCF4B99422FDD42464B4617F018FFBB
:100E800007B0BDE8F08FCB4B9C4270DDCA4B1E44CF
:100E90009E427ED80022C94B4046494617F008FFC3
:100EA0004FEA215AAAF2FF3ABAF1000F04460D4662
:100EB0000E4640F3DE8142464B4617F0F7FE0246EF
:100EC0000B460020BD4917F0F1FE22462B4618F0D4
:100ED000CBF9CDE902010BE0B94B9E42DADD9FED83
:100EE0009A7B8DED027B4FEA265A4446AAF2FF3ADE
:100EF000B44BC6F313069E4246F07F5500F3E780DD
:100F000045F44015204629460022AC4B17F0CEFE92
:100F1000002204460D46AC4B18F07CF822462B46C6
:100F200018F078F8A046CDE90401A946CDE9000102
:100F3000002E3AD1002200232046294618F0D2FA8A
:100F4000002800F0CE80BAF1000F40F0748100203C
:100F5000002195E742464B464046314617F0A6FE33
:100F600002460B4618F080F907B0BDE8F08F00226A
:100F7000964B17F09DFE0022002318F0DBFA0028A4
:100F800000F0CC80924B9C4200F3C880404649461A
:100F900076E700228C4B18F03DF842464B4618F09D
:100FA00039F8CDE900014FF0000A00224FF08043EC
:100FB0004046494617F07CFE02460B4640464946ED
:100FC00018F052F902460B4606460F4618F022F872
:100FD0005FA3D3E9002304460D4618F01BF85EA377
:100FE000D3E9002317F064FE22462B4618F012F8CE
:100FF0005BA3D3E9002317F05BFE22462B4618F0D3
:1010000009F859A3D3E9002317F052FE22462B46D4
:1010100018F000F856A3D3E9002317F049FE224642
:101020002B4617F0F7FF54A3D3E9002317F040FE37
:1010300022462B4617F0EEFF51A3D3E9002317F009
:1010400037FE22462B4617F0E5FF04460D46BAF15F
:10105000000F00F0BF80504617F076FF4AA3D3E997
:10106000002382468B4617F0D5FFDDE90023CDE94A
:1010700004012046294617F01BFE32463B4617F076
:10108000C9FF43A3D3E9002304460D465046594601
:1010900017F0C0FFDDE9022317F00AFE02460B46F7
:1010A0002046294617F004FE02460B46DDE9000102
:1010B00017F0FCFD42464B4617F0F8FD02460B4682
:1010C000DDE9040117F0F2FD07B0BDE8F08F45F44B
:1010D0000015C6F5801620462946B6100AF1010A09
:1010E00012E72DA3D3E900232046294617F092FFEB
:1010F00002460B460020314917F0D8FDDDE90423F4
:1011000017F088FF06460F46BAF1000F73D102466A
:101110000B462046294617F0C9FDB1E642464B462C
:101120004046494617F076FF0022274B17F072FF22
:1011300002460B464046494617F0B8FD07B0BDE8E9
:10114000F08F00BFAFF3008000000000000000003F
:1011500044523EDF12F1C23F9FC678D0099AC33F86
:10116000DE03CB966446C73FAF788E1DC571CC3F7A
:10117000599322942449D23F04FA97999999D93FD7
:10118000935555555555E53F0000E0FE422EE63F8C
:10119000763C7935EF39EA3D555555555555E53F7E
:1011A0007982DA3FFFFFEF3F0000F0BF000050C33D
:1011B000FFFFEF7FFFFF1F3E3C412D400000F03F4F
:1011C000FFFF3F439DA006000000E03F00005043AA
:1011D000FFFF8F3CDDE9004522462B4617F068FDF6
:1011E00032463B4617F016FF02460B46204629467C
:1011F00017F05CFD9CE7504617F0A6FE23A3D3E949
:10120000002382468B4617F005FF22A3D3E9002373
:10121000804689465046594617F0FCFEDDE9022318
:1012200017F046FD02460B463046394617F03EFDA4
:1012300022462B46DCE7504617F086FE15A3D3E97D
:10124000002306460F4617F0E5FEDDE9022317F0FE
:101250002FFD0EA3D3E9002304460D463046394640
:1012600017F0D8FE02460B462046294617F020FD0F
:1012700006E60022044B17F019FD02460B464046D5
:10128000494617F013FD20E60000F03F0000E0FEA5
:10129000422EE63F763C7935EF39EA3D000000000A
:1012A00008B516F039F904A3D3E9002317F0DCFFE1
:1012B00008BD00BFAFF30080EF39FAFE422EE63FD3
:1012C0002DE9F043DFF8B4808BB004460D4601F001
:1012D000F3F898F90030013306460F462BD022462A
:1012E0002B462046294618F02FF9814618BB204688
:1012F000294615F08BFD1FA3D3E9002318F01AF936
:10130000C8B1194A98F90030CDF820900321CDE9F1
:101310000445CDE902458DE806008BB9134B4FF02B
:101320006042CDE90623684617F0C2FA70B1089B07
:101330009BB9DDE90667304639460BB0BDE8F0835E
:101340000B490020022BCDE90601ECD117F03CFC43
:1013500022230360089B002BEBD017F035FC089B81
:101360000360E6E7AFF30080F4B40100FFFFEF474E
:101370000000F07F7DF8B98FCE338640FB0100205E
:101380002DE9F043DFF8E4808BB004460D4601F010
:1013900043F998F90030013306460F4633D0204612
:1013A000294617F07FFA70B32CA3D3E90023204617
:1013B000294618F0BFF8814650BB2AA3D3E9002381
:1013C0002046294618F098F8E8B198F90030204AEC
:1013D000CDF82090002600270421022BCDE90445FA
:1013E000CDE90245CDE906678DE8060029D06846BB
:1013F00017F05EFA28B3089B1BB117F0E5FB089BBA
:101400000360DDE90667304639460BB0BDE8F0837E
:101410000F4A98F90030019203210022CDE90445DA
:10142000CDE90245009108922BB90A4B4FF060427A
:10143000CDE90623DBE708490020022BCDE90601B0
:10144000D5D117F0C1FB22230360D4E7AFF30080AE
:10145000FCB40100FFFFEF470000F07FEF39FAFE18
:10146000422E864051302DD5104987C0FB01002007
:101470002DE9F04FDFF80C938DB006460F46144669
:101480001D4601F0C5FC99F90080B8F1FF3FCDE998
:10149000000136D022462B462046294618F054F843
:1014A000834670BB32463B463046394618F04CF80E
:1014B0008246002840F0A2803046394600220023B0
:1014C00018F010F810B3002200232046294618F027
:1014D00009F8834600286AD09FEDA17B0122A44B26
:1014E000CDF828A00292CDE90467CDE906458DED3F
:1014F000087B0393B8F1000F45D09FED9B7B8DEDEA
:10150000007BDDE900010DB0BDE8F08FDDE90001F1
:1015100017F0C8F98046002800F08D804FF0000ACF
:101520004FF0000BDDE9000152465B4617F0DAFF91
:101530000028E6D03046394617F0B4F90028E0D04C
:101540002046294617F0AEF90028DAD099F9003084
:10155000874A039204210022022BCDE90467CDE9DA
:101560000645CDE908AB02910A9203D002A817F014
:101570009FF968B917F028FB2223036008E09FED6C
:10158000787B8DED087B02A817F092F9002830D007
:101590000A9B1BB117F018FB0A9B03609DED087BAB
:1015A0008DED007BDDE900010DB0BDE8F08F204638
:1015B000294617F077F90028A3D0002200232046FF
:1015C000294617F099FF00289BD099F90030684A06
:1015D000CDF828B00121CDE90467CDE90645029197
:1015E0000392002BCBD063490020022BCDE90801E8
:1015F000C9D117F0E9FA21230360C9E700220023CB
:101600002046294617F06EFF00283FF47AAF5A4B68
:101610005749CDF828B000220120B8F1020FCDE9DA
:1016200004670290CDE90645CDE908230391AAD1CC
:10163000CDE9002365E73046394617F033F9002835
:101640003FF46CAF2046294617F02CF900283FF4F0
:1016500065AFDDE900231046194617F075FF002835
:101660005FD1032399F900800293414B0A90CDE9A1
:101670000467CDE906450393B8F1000F2BD1DFF8DD
:1016800008B14FF0604A0022002330463946CDE9C8
:1016900008AB17F031FF00283FF468AF0022374B4A
:1016A0002046294617F0B6FC04460D4617F008F907
:1016B00002460B462046294617F014FF70BB304BFC
:1016C00099F900804FF06042CDE90823B8F1020F8C
:1016D0007FF44CAF4EE7DFF8B4B04FF0000A0022C1
:1016E000002330463946CDE908AB17F005FF002846
:1016F000ECD00022214B2046294617F08BFC0446F3
:101700000D4617F0DDF802460B462046294617F035
:10171000E9FE18B9174B0022CDE9082399F900809A
:10172000D4E799F90090124BCDF828800122CDE939
:101730000467CDE9064502920393B9F1000F3FF427
:101740001EAF002200231046194617F08DFDB9F197
:10175000020FCDE908013FF44CAF14E7AFF300806E
:101760000000000000000000000000000000F03F4A
:1017700014B501000000F0FF0000F03F0000E03F62
:10178000FFFFEFC7FB010020FFFFEF470000F07FE6
:101790002DE9F84FC44E21F00043B34204460D46F4
:1017A0000DDD03F1404303F58013034340F0B9809E
:1017B000002940F3408100200021BDE8F88FBB4E96
:1017C000B34240F3A6800029C0F2788102460B465E
:1017D0000020B74917F06AFA0022B64B17F01AFC3E
:1017E00004460D4616F0D6F995A3D3E900238946A1
:1017F00080462946204617F00DFC93A3D3E9002329
:1018000017F056FA22462B4617F004FC90A3D3E9B2
:10181000002317F04BFA22462B4617F0FBFB8EA352
:10182000D3E9002317F044FA22462B4617F0F2FBC7
:101830008BA3D3E9002317F039FA22462B4617F081
:10184000E9FB89A3D3E9002317F032FA22462B469D
:1018500017F0E0FB86A3D3E9002382468B4620469F
:10186000294617F0D7FB84A3D3E9002317F01EFA0B
:1018700022462B4617F0CEFB81A3D3E9002317F0B5
:1018800017FA22462B4617F0C5FB7FA3D3E90023A6
:1018900017F00CFA22462B4617F0BCFB0022844BB3
:1018A00017F006FA02460B465046594617F0DCFC84
:1018B00042464B4617F0AEFB002682468B46324628
:1018C0004B463046494617F0A5FB02460B462046DC
:1018D000294617F0EBF9324604460D464B46404682
:1018E000494617F0E5F902460B462046294617F00F
:1018F000BBFC02460B465046594617F0D9F9324612
:101900004B4617F0D5F902460B4617F0D1F9BDE862
:10191000F88F694A93420EDC5DA1D1E90001BDE870
:10192000F88F02460B4617F0C1F902460B4617F036
:101930009BFCBDE8F88F02460B4617F06BFB40A3FB
:10194000D3E9002306460F4617F064FB3EA3D3E914
:10195000002317F0ADF932463B4617F05BFB3CA382
:10196000D3E9002317F0A2F932463B4617F052FBA9
:1019700039A3D3E9002317F09BF932463B4617F011
:1019800049FB37A3D3E9002317F090F932463B46D1
:1019900017F040FB34A3D3E9002317F089F932464E
:1019A0003B4617F037FB32A3D3E900238046894634
:1019B0003046394617F02EFB2FA3D3E9002317F04A
:1019C00075F932463B4617F025FB2DA3D3E90023DA
:1019D00017F06EF932463B4617F01CFB2AA3D3E9F9
:1019E000002317F063F932463B4617F013FB002241
:1019F0002F4B17F05DF902460B464046494617F05B
:101A000033FC22462B4617F005FB02460B4622A16B
:101A1000D1E9000117F04AF902460B462046294653
:101A200017F044F902460B4619A1D1E9000117F05D
:101A30003DF9BDE8F88F1AA1D1E90001BDE8F88FA2
:101A400009F7FD0DE13D023F88B20175E0EF493F26
:101A50003B8F68B52882A43F5544880E55C1C93FC5
:101A60007D6FEB0312D6D43F555555555555C53F9F
:101A700082922EB1C5B8B33F59018D1B6C06E63F6B
:101A8000C88A599CE52A00404B2D8A1C273A0340FE
:101A9000182D4454FB21F93F075C143326A6913CD2
:101AA000182D4454FB210940FFFFEF3FFFFFDF3FAC
:101AB0000000F03F0000E03F0000603C00225C4B73
:101AC00017F0F6F800225B4B17F0A4FA40A3D3E915
:101AD000002304460D4617F09DFA3FA3D3E90023E7
:101AE00017F0E6F822462B4617F094FA3CA3D3E908
:101AF000002317F0DBF822462B4617F08BFA3AA3A7
:101B0000D3E9002317F0D4F822462B4617F082FAC7
:101B100037A3D3E9002317F0C9F822462B4617F064
:101B200079FA35A3D3E9002317F0C2F822462B46F1
:101B300017F070FA804689462046294616F02AF8A2
:101B40002FA3D3E9002306460F462046294617F067
:101B500061FA2DA3D3E9002317F0A8F822462B46FB
:101B600017F058FA2AA3D3E9002317F0A1F8224668
:101B70002B4617F04FFA28A3D3E9002317F096F865
:101B800022462B4617F046FA0022294B17F090F810
:101B900002460B464046494617F066FB32463B4636
:101BA00017F038FA1EA3D3E9002317F07FF8324666
:101BB0003B4617F07DF802460B4617F079F80246CF
:101BC0000B4619A1D1E9000117F070F8BDE8F88FB4
:101BD00009F7FD0DE13D023F88B20175E0EF493F95
:101BE0003B8F68B52882A43F5544880E55C1C93F34
:101BF0007D6FEB0312D6D43F555555555555C53F0E
:101C000082922EB1C5B8B33F59018D1B6C06E63FD9
:101C1000C88A599CE52A00404B2D8A1C273A03406C
:101C2000075C143326A6913C182D4454FB2109402F
:101C30000000F03F0000E03F434A91422DE9F843A5
:101C400004460D4639DD414A914209DD02F17952DF
:101C5000914240DD02460B4617F02AF8BDE8F883B2
:101C600001F1404202F58012024330D0B1F1804FC1
:101C70003ADC0022364B17F019F802460B460446B0
:101C80000D4617F015F8224606460F462B4620460D
:101C9000294617F0BFF902460B463046394617F081
:101CA00007F815F077FF0B4602462946204616F046
:101CB000FFFFBDE8F843FFF7BFB802460B4616F03A
:101CC000F5FF02460B4617F0CFFABDE8F883002077
:101CD0000021BDE8F88300F017FE19A3D3E9002323
:101CE00016F0E6FFBDE8F88302460B4617F092F9BE
:101CF0000022174B16F0DAFF15F04CFF2246804603
:101D000089462B462046294616F0D2FF4246064613
:101D10000F464B462046294616F0CAFF02460B46A0
:101D200000200B4917F0A0FA0B4602463946304610
:101D300016F0BCFFBDE8F84300F0E6BDAFF300804D
:101D4000EF39FAFE422EE63FFFFFEF3FFFFFAF41C4
:101D50000000F03F000000002DE9F047BE4B21F0ED
:101D60000048984584B004460D4612DD08F140480D
:101D700008F58018034658EA030321D002460B46B3
:101D800016F094FF02460B4617F06EFA04B0BDE859
:101D9000F087B24B98458A4629DCB8F1795F80F22A
:101DA000658191A3D3E9002316F082FF0022AC4B9A
:101DB00017F0C0FBD8B12046294604B0BDE8F08733
:101DC0008BA3D3E9002317F025F98BA3D3E90023D4
:101DD00006460F462046294617F01CF902460B46D8
:101DE0003046394616F064FF04B0BDE8F08720465F
:101DF000294615F00BF802460B460020984916F0CC
:101E000055FF0022974B17F005F97DA3D3E9002376
:101E100004460D4617F0FEF87BA3D3E9002316F025
:101E200047FF22462B4617F0F5F879A3D3E90023A4
:101E300016F03CFF22462B4617F0ECF876A3D3E9C8
:101E4000002316F035FF22462B4617F0E3F874A363
:101E5000D3E9002316F02AFF22462B4617F0DAF8C2
:101E600071A3D3E9002316F023FF22462B4617F077
:101E7000D1F86FA3D3E90023CDE90001204629461C
:101E800017F0C8F86CA3D3E9002316F00FFF224621
:101E90002B4617F0BFF86AA3D3E9002316F008FF1A
:101EA00022462B4617F0B6F867A3D3E9002316F0B5
:101EB000FDFE22462B4617F0ADF8694B002216F0C6
:101EC000F7FECDE902012046294615F063FE664B78
:101ED000984506460F4666DCDDE90223DDE9000190
:101EE00017F0C2F93246CDE900013B46304639468B
:101EF00016F0DEFE02460B46DDE9000117F08AF817
:101F00004FF00008CDE9000142463B4640463946C5
:101F100017F080F802460B462046294616F0C6FE0A
:101F2000424604460D463B463046394616F0C0FE52
:101F300002460B462046294617F096F902460B4604
:101F400016F0B6FE02460B462BA1D1E9000116F0B1
:101F5000ADFE02460B46DDE9000116F0A7FE424643
:101F600004460D463B464046394616F0A1FE024661
:101F70000B4637A1D1E9000116F098FE02460B4648
:101F80002046294616F092FE02460B4630A1D1E9C2
:101F9000000116F08BFEBAF1000F3FF7F7AE01F12A
:101FA00000431946F2E6DDE90223DDE9000117F0FE
:101FB0005BF932463B4617F02DF832463B4616F0A9
:101FC00077FE02460B4616F073FE0BA3D3E90023FF
:101FD00016F06CFE02460B4605A1D1E9000116F091
:101FE00065FED8E7AFF300809C7500883CE4377E3F
:101FF000182D4454FB21F93F075C143326A6913C6D
:1020000009F7FD0DE13D023F88B20175E0EF493F60
:102010003B8F68B52882A43F5544880E55C1C93FFF
:102020007D6FEB0312D6D43F555555555555C53FD9
:1020300082922EB1C5B8B33F59018D1B6C06E63FA5
:10204000C88A599CE52A00404B2D8A1C273A034038
:10205000182D4454FB21E93FFFFFEF3FFFFFDF3F17
:102060000000F03F0000E03F3233EF3F02460B46F6
:1020700016F0D0FF37A3D3E9002306460F4616F02B
:10208000C9FF36A3D3E9002316F012FE32463B46C1
:1020900016F0C0FF33A3D3E9002316F007FE324643
:1020A0003B4616F0B7FF31A3D3E9002316F000FE3C
:1020B00032463B4616F0AEFF2EA3D3E9002316F0BE
:1020C000F5FD32463B4616F0A5FF2CA3D3E90023CD
:1020D00016F0EEFD32463B4616F09CFF29A3D3E9ED
:1020E0000023804689463046394616F093FF27A3E1
:1020F000D3E9002316F0DAFD32463B4616F08AFF9C
:1021000024A3D3E9002316F0D3FD32463B4616F054
:1021100081FF22A3D3E9002316F0C8FD32463B46D7
:1021200016F078FF00220A4B16F0C2FD02460B465D
:102130004046494617F098F822462B4616F06AFFAB
:1021400022462B4616F0B4FD04B0BDE8F08700BF70
:102150000000F03F09F7FD0DE13D023F88B2017537
:10216000E0EF493F3B8F68B52882A43F5544880E75
:1021700055C1C93F7D6FEB0312D6D43F5555555518
:102180005555C53F82922EB1C5B8B33F59018D1B3D
:102190006C06E63FC88A599CE52A00404B2D8A1CF4
:1021A000273A0340000000002DE9F84F1D46534236
:1021B000134325F0004ADFF8E0E14AEAD3737345A0
:1021C000144606460F4647D8C0F1000848EA000802
:1021D00021F0004343EAD878F0458B463CD805F11E
:1021E000404808F5801858EA020850D04FEAA57810
:1021F00008F0020848EAD17850EA030134D052EAE4
:102200000A023CD0F24557D0734538D0A3EB0A03FD
:102210001B153C2B42DC002D70DB22462B46304642
:10222000394617F021F814F0F1FDFEF751FBB8F133
:10223000010F5FD0B8F1020F4ED0B8F1000F62D09D
:1022400043A3D3E9002316F031FD43A3D3E90023D0
:1022500016F02CFDBDE8F88F32463B462046294655
:1022600016F026FDBDE8F88FB8F1020F1AD0B8F1CC
:10227000030F10D13AA1D1E90001BDE8F88FBBF1FD
:10228000000F14DB38A1D1E90001BDE8F88FBDE8EB
:10229000F84FFEF71DBB3946BDE8F88F32A1D1E9F2
:1022A0000001C4E72CA1D1E90001BDE8F88F30A1FD
:1022B000D1E90001BDE8F88F534526D0B8F1020FEF
:1022C000F0D0B8F1030FD5D0B8F1010F4FF00000F6
:1022D00029D00021BDE8F88F1DA3D3E9002316F013
:1022E000E5FC02460B461CA1D1E9000116F0DEFC1C
:1022F000BDE8F88F01F10041BDE8F88F3C338CDA7E
:102300000020002193E7BDE8F88FB8F1020F18D044
:10231000B8F1030F10D0B8F1010F08D016A1D1E920
:102320000001BDE8F88F4FF00041BDE8F88F14A11F
:10233000D1E90001BDE8F88F13A1D1E90001BDE8A2
:10234000F88F13A1D1E90001BDE8F88FAFF3008049
:10235000075C143326A6A13C182D4454FB210940E8
:10236000182D4454FB2109C0182D4454FB21F93F7A
:10237000182D4454FB21F9BF182D4454FB21E93F8B
:10238000182D4454FB21E9BFD221337F7CD902C0F0
:10239000D221337F7CD902400000F07F0000000092
:1023A00043422DE9F047034321F000463E4A46EA06
:1023B000D373934204460D4613D896423DD03B4B0F
:1023C0009E428A4617DC36A3D3E9002316F070FC40
:1023D0000022002317F0AEF8A8B320462946BDE836
:1023E000F08702460B4616F061FC02460B4616F0DB
:1023F0003BFFBDE8F0872E4B9E42354624DD334639
:102400000246314616F054FC224606460F462B463D
:102410000020254916F04AFC02460B463046394654
:1024200016F022FFFEF708FD0022224B16F0F2FD07
:10243000BAF1000F2FDBBDE8F0870022002316F071
:1024400013FFBDE8F087354622462B462046294635
:1024500016F02EFC22462B4606460F4616F0DAFDF5
:102460002246804689462B4600200F4916F01EFC66
:1024700002460B464046494616F0F6FE32463B46BB
:1024800016F016FCFEF7D8FC00220A4B16F0C2FD2F
:10249000BAF1000FCFDA01F100431946BDE8F08729
:1024A0009C7500883CE4377E0000F03FFFFF2F3E24
:1024B000FFFFDF3F0000E03F2DE9F8434E4B21F0E6
:1024C00000449C4206460F461BDC4C4B9C4222DDDE
:1024D0004B4B9C4263DD4B4B9C427BDD4A4B9C4209
:1024E00046DD01339C4240D041A3D3E9002310468E
:1024F000194616F08FFD06460F4630463946BDE8B0
:10250000F88302460B4616F085FD06460F46304618
:102510003946BDE8F88314F079FC02F0B1FC0022E2
:102520003A4B8046894616F0C3FBB4F1725F06460B
:102530000F46ECDB42464B464046494616F06AFDE4
:1025400032463B4604460D463046394616F0B0FB4F
:1025500002460B462046294616F086FE00222B4BEB
:1025600016F0A6FB06460F46D1E7294B9842BBD88A
:102570003046394614F04AFC0022264B16F04AFD3C
:1025800000F04AF8002204460D46224B16F042FDA8
:1025900022462B4616F03EFD06460F46B7E714F0DE
:1025A00035FC00F039F800221A4B06460F4616F0AB
:1025B00031FD32463B4604460D460020154916F0D3
:1025C00053FE02460B462046294616F071FB06468E
:1025D0000F469CE714F01AFC00F01EF800220D4B89
:1025E00016F018FD06460F4691E700BFAFF30080D6
:1025F0009C7500883CE4377EFFFFEF7F422ED63F7C
:10260000FFFF3540412E8640CD3386400000F03F2D
:102610007DF8B98F0000E03F2DE9F04FB04E21F07A
:102620000042B24283B004460D464FEAD1770DD93D
:10263000AC4EB24225D9C1F31303034340F0EC8002
:102640000FB10020002103B0BDE8F08FA64B9A42E5
:1026500000F2CB80A54B9A4200F2DC808AA3D3E93A
:10266000002316F025FB0022A14B16F063FF002883
:1026700000F006812046294600229D4B16F018FBEB
:10268000E1E783A3D3E9002316F054FF002840F0CC
:10269000C88081A3D3E900232046294616F02CFFE9
:1026A0000028CED1934E7EA3D3E9002306EBC706C4
:1026B0002046294616F0AEFCD6E9002316F0F8FABB
:1026C00016F058FF064616F03FFC77A3D3E9002327
:1026D0008046894616F09EFC02460B462046294657
:1026E00016F0E4FA72A3D3E90023CDE900014046D5
:1026F000494616F08FFC82468B4652465B46DDE922
:10270000000116F0D3FA04460D4622462B46204619
:10271000294616F07FFC68A3D3E90023804689464A
:1027200016F078FC66A3D3E9002316F0BFFA424600
:102730004B4616F06FFC64A3D3E9002316F0B8FAF9
:1027400042464B4616F066FC61A3D3E9002316F01F
:10275000ADFA42464B4616F05DFC5FA3D3E9002379
:1027600016F0A6FA42464B4616F054FC02460B46BB
:102770002046294616F09AFA80468946002E58D0FF
:102780002046294642464B4616F044FC4246044643
:102790000D464B4600204FF0804116F087FA024666
:1027A0000B462046294616F05FFD02460B46504672
:1027B000594616F07BFADDE9002316F077FA0B464E
:1027C00002464B49002016F071FA6FF47F739E4267
:1027D00051DA06F57A7601EB065100224FF0B87314
:1027E00016F018FC03B0BDE8F08F434B9A423FF659
:1027F00059AF424BFC002344D3E9002316F056FAAC
:102800003F4BC7F101062344CDE90001D3E900ABFA
:10281000F61B72E7002678E702460B4616F048FAE8
:1028200011E719A3D3E900231046194616F0F2FB6D
:1028300009E702460B462046294616F0EBFB00222C
:1028400006460F464FF080434046494616F02EFAA2
:1028500002460B463046394616F006FD22462B4608
:1028600016F024FA02460B460020214916F01EFA03
:1028700003B0BDE8F08F01EB065103B0BDE8F08F67
:10288000064642E7AFF300809C7500883CE4377E43
:10289000EF39FAFE422E864051302DD5104987C0BF
:1028A000FE822B654715F73F0000E0FE422EE63F13
:1028B000763C7935EF39EA3DD0A4BE726937663E81
:1028C000F16BD2C541BDBB3E2CDE25AF6A56113F30
:1028D00093BDBE166CC1663F3E5555555555C53F17
:1028E000412E8640FFFFEF7F422ED63FFFFF2F3E57
:1028F0000000F03FA8A20100B1A2F03FB8A2010081
:10290000C8A20100000000002DE9F04FB1F5801FC2
:1029100085B006460F460B465ADA024621F00044BF
:10292000224300F0F8800029C0F27A810022D64BC1
:1029300016F070FBD54A0B46934206460F466FF0E1
:10294000350C4ADCC3F3130505F5152E0EF6647E2F
:102950000EF4801E8EF07F5282F440121C1542EA63
:102960000507A4F2FF3464440022C94B30463946BF
:1029700004EB1E5416F09AF9AB1CC3F31303022B9D
:1029800082468B464FF0000230DC002316F0AAFD91
:10299000002800F0C980002C00F04B81204616F082
:1029A000D3FAA5A3D3E9002306460F4616F032FB5F
:1029B000A3A3D3E9002304460D463046394616F05A
:1029C00029FB02460B462046294616F071F90AE01B
:1029D000AE4A93424FF0000CB4DD32463B463046DF
:1029E000394616F065F905B0BDE8F08F4FF0804329
:1029F00016F05EF902460B465046594616F034FC76
:102A0000064620460F4616F09FFA3246CDE90001F1
:102A10003B4630463946CDE9026716F0FBFA0246DE
:102A20000B468046894616F0F5FA87A3D3E90023C2
:102A300006460F4616F0EEFA85A3D3E9002316F0FA
:102A400037F932463B4616F0E5FA83A3D3E9002373
:102A500016F02EF932463B4616F0DCFA80A3D3E995
:102A6000002316F025F942464B4616F0D3FA7EA312
:102A7000D3E90023804689463046394616F0CAFA23
:102A80007BA3D3E9002316F013F932463B4616F038
:102A9000C1FA79A3D3E9002316F00AF932463B467E
:102AA00016F0B8FA0B4602464946404616F000F9C1
:102AB000A5F5C223C5F5D725A3F27A4351351D43A9
:102AC000002D8046894656DD0022724B50465946FD
:102AD00016F0A0FA52465B4616F09CFA06460F46E0
:102AE000002C68D132463B464046494616F0E0F895
:102AF000DDE9022316F08EFA02460B4630463946CF
:102B000016F0D4F802460B465046594616F0CEF859
:102B100005B0BDE8F08F0022002300205E4916F0CA
:102B2000A3FB05B0BDE8F08F55A3D3E900235046C1
:102B3000594616F06FFA02460B460020554916F02A
:102B4000B5F8524606460F465B465046594616F0C3
:102B500061FA02460B463046394616F05BFA0646E5
:102B60000F46002C40F09A8002460B4650465946CC
:102B700016F09CF837E7002C00F0A4802EA3D3E9D0
:102B80000023DDE9000116F045FA42464B460446B3
:102B90000D465046594616F089F8DDE9022316F035
:102BA00039FA27A3D3E9002306460F46DDE90001E1
:102BB00016F030FA21E020A3D3E90023DDE900017B
:102BC00016F028FA32463B4604460D464046494632
:102BD00016F06EF8DDE9022316F01CFA18A3D3E90B
:102BE000002380468946DDE9000116F013FA02460B
:102BF0000B464046494616F05BF802460B46304607
:102C0000394616F053F852465B4616F04FF8024626
:102C10000B462046294616F049F805B0BDE8F08F6E
:102C200002460B4616F042F80022002316F01CFB69
:102C3000D9E600200021D6E60000E0FE422EE63F65
:102C4000763C7935EF39EA3D44523EDF12F1C23F1E
:102C5000DE03CB966446C73F599322942449D23F62
:102C6000935555555555E53F9FC678D0099AC33FB2
:102C7000AF788E1DC571CC3F04FA97999999D93FC9
:102C8000555555555555D53F00005043FFFFEF7F33
:102C90000000F03F0000E03F000050C3204616F067
:102CA00053F90FA3D3E900238046894616F0B2F901
:102CB0000DA3D3E9002304460D464046494616F0CD
:102CC000A9F99AE702460B465046594615F0EEFF21
:102CD000DDE9022316F09EF914E700BFAFF3008090
:102CE0000000E0FE422EE63F763C7935EF39EA3DC2
:102CF000B1F5801F2DE9F84304460D460B461ADA5C
:102D0000024621F00046324359D000295FDB002201
:102D10003B4B16F07FF93B4A0D462B469342044647
:102D20006FF035010CDD22462B462046294615F072
:102D3000BFFFBDE8F883334A93424FF00001F2DC55
:102D40001815A0F2FF3008444FEAD0794844C3F385
:102D5000130816F0F9F8C9F57F73033348EA0355F1
:102D600006460F4620462946FFF7CEFD1EA3D3E9AF
:102D70000023804689463046394616F04BF91CA39D
:102D8000D3E9002304460D464046494616F042F971
:102D900002460B462046294615F08AFF16A3D3E9C2
:102DA000002304460D463046394616F033F90246F4
:102DB0000B462046294615F07BFFBDE8F88300222C
:102DC00000230020104916F04FFABDE8F8830246B0
:102DD0000B4615F06BFF0022002316F045FABDE804
:102DE000F88300BFAFF30080362BF111F3FE593D9D
:102DF0000EE526157BCBDB3F00609F501344D33F8D
:102E000000005043FFFFEF7F000050C300000000B0
:102E10002DE9F04F23F0004757EA020493B037D072
:102E2000674C21F00046A64283460D4629DC9A46AF
:102E3000964625D0A74224DC614CA74279D0002DCC
:102E400080468946CDE9002377DB0024BEF1000FE0
:102E50002CD15B4B9F4200F08B805A4B9F4261D03C
:102E6000BAF1804F00F0C383574B9A451ED1002D15
:102E70001CDB4046494613B0BDE8F04F14F08ABE53
:102E800058B106F1404606F5801656EA0B0306D106
:102E90004C49002013B0BDE8F08FB742CCDD4B4861
:102EA00013B0BDE8F04F15F005BD0024404649467B
:102EB00013F0ACFFBBF1000F19D126B1414B25F047
:102EC00040429A4213D1BAF1000FC0F2CA83002DDA
:102ED000E0DA06F1404606F5801656EA040300F0F3
:102EE000A584012CD6D101F100431946D2E7ED0F9C
:102EF000013D54EA05034ED0354B9F426EDD03F190
:102F000004739F4240F3FE83324B9E424EDDBAF182
:102F1000000F4EDD28A3D3E900231046194616F012
:102F200079F8B7E7BAF1000FC0F25284404649463B
:102F3000B0E7BEF1000F82D0A3E7274B9F4228DC09
:102F4000A3F154739F4280DD3B15A3F2FF33142B92
:102F500040F35484C3F134032EFA03F202FA03F36C
:102F60009E457FF472AF02F00102C2F102046DE7E8
:102F700006F1404303F5801353EA0B0388D0154B49
:102F80009E4240F33B83BAF1000F12DBDDE9000102
:102F900080E702245AE742464B461046194615F090
:102FA00085FE02460B4616F05FF973E7BAF1000F93
:102FB000B0DB002000216DE79C7500883CE4377E83
:102FC0000000F07F0000F03F0000E03FF4AA0100A5
:102FD0000000E041FFFFEF3FFFFF3F43B6F5801FDA
:102FE0004FF0000205DAD84B16F014F86FF03402F7
:102FF0000E463315D54FC6F31306A3F2FF33134421
:1030000046F07F5ABE421A460D934AF4401A40F3E6
:103010002F83CF4B9E4240F30D849FEDB57B8DED0A
:10302000087B8DED0E7B9FEDB47B13468DED067B0B
:1030300001330D93AAF5801A0027DDE906235146D6
:10304000CDE90A0115F032FEDDE906238046894606
:10305000DDE90A0115F02CFE02460B460020BD49B1
:1030600016F002F90A460146CDE910121346494608
:103070000246404615F0CEFF4FEA6A0343F0005384
:103080008C46834603F50023CDE904BCDA468B4623
:10309000D9190023CDE902AB0293DDE902AB002090
:1030A00006460F4602460B465046594615F0B2FFFB
:1030B00002460B464046494615F0F8FDDDE9062379
:1030C000804689463046394615F0F0FD02460B46EB
:1030D000DDE90A0115F0EAFD52465B4615F09AFF5C
:1030E00002460B464046494615F0E0FDDDE9102357
:1030F00015F090FFDDE90467CDE9060132463B4655
:103100003046394615F086FF7DA3D3E900230646F5
:103110000F4615F07FFF7CA3D3E9002315F0C8FD0F
:1031200032463B4615F076FF79A3D3E9002315F02C
:10313000BFFD32463B4615F06DFF77A3D3E9002370
:1031400015F0B6FD32463B4615F064FF74A3D3E993
:10315000002315F0ADFD32463B4615F05BFF72A330
:10316000D3E9002315F0A4FD3246804689463B464C
:103170003046394615F04EFF02460B46404649465A
:1031800015F048FF524606460F465B46DDE904014E
:1031900015F08EFDDDE9062315F03CFF32463B4677
:1031A00015F086FD5246804689465B465046594694
:1031B00015F030FF0022684BCDE90A0115F078FDCB
:1031C00042464B4615F074FD02980F4606463246BD
:1031D0003B465046594615F01DFF002282468B465D
:1031E0005D4B3046394615F061FDDDE90A2315F0E7
:1031F0005DFD02460B464046494615F057FDDDE9A8
:10320000042315F007FF3246804689463B46DDE938
:10321000060115F0FFFE02460B464046494615F0F2
:1032200047FD8046894602460B4650465946CDE941
:1032300004AB15F03DFDDDE902AB3DA3D3E900236E
:1032400050460F4615F0E6FEDDE90423CDE9020104
:103250003946504615F02AFD02460B46404649467F
:1032600015F024FD34A3D3E9002315F0D3FE34A3D5
:10327000D3E90023804689465046394615F0CAFEF8
:1032800002460B464046494615F012FDDDE90E2385
:1032900015F00EFD80460D98894615F055FE424604
:1032A00006460F464B46DDE9020115F001FDDDE95A
:1032B000082315F0FDFC32463B4615F0F9FC32467A
:1032C0003B4650468B4615F0F1FCDDE9082315F02E
:1032D000EDFCDDE9022315F0E9FC02460B46404611
:1032E000494615F0E3FC8046894637E0AFF300809D
:1032F0000000000000000000000000000000F03F9F
:10330000EF4E454A287ECA3F65DBC9934A86CD3FCA
:1033100001411DA96074D13F4D268F515555D53FB0
:10332000FFAB6FDBB66DDB3F033333333333E33F48
:10333000000000E009C7EE3FFD033ADC09C7EE3F9D
:10334000F5015B14E02F3EBE000040438E98030061
:1033500079B60B000000F03F00000840013C54EA41
:10336000050300F079819FEDC87B8DED047BDDE9DD
:1033700000120B461446CDE9023400230293DDE926
:10338000024508462B461146224615F08FFC524650
:103390005B4615F03FFEDDE9002306460F4640463A
:1033A000494615F037FE02460B463046394615F0C1
:1033B0007FFC2246804689462B4650465946CDE939
:1033C000008915F027FE0B46024606460F4640468A
:1033D000494615F06DFCC64B994204460D468A4697
:1033E00040F3168101F13F4303F5E003034340F04E
:1033F000F781A7A3D3E90023DDE9000115F058FC0C
:103400003246804689463B462046294615F04EFC0A
:1034100002460B464046494616F08CF8002840F01C
:10342000DF81A8464FEA28534FF48012A3F2FE33FF
:1034300042FA03F35344C3F30A52AE4DA2F2FF32F1
:103440001541C3F3130423EA05010020C2F1140B54
:1034500044F48014BAF1000F02460B4644FA0BFB09
:1034600030463946B8BFCBF1000B15F01FFC0246C1
:103470000B4606460F46DDE9000115F019FC4FEA40
:103480000B5A0D46002484A3D3E900232046294685
:1034900015F0C0FD3246804689463B462046294607
:1034A00015F004FC02460B46DDE9000115F0FEFBB9
:1034B0007BA3D3E9002315F0ADFD7BA3D3E9002363
:1034C00006460F462046294615F0A4FD02460B4647
:1034D0003046394615F0ECFB06460F4602460B46D1
:1034E0004046494615F0E4FB42464B4604460D462D
:1034F00015F0DCFB02460B463046394615F0D6FB8C
:103500002246804689462B462046294615F082FDF4
:1035100067A3D3E9002306460F4615F07BFD66A39B
:10352000D3E9002315F0C2FB32463B4615F072FD8D
:1035300063A3D3E9002315F0BBFB32463B4615F0ED
:1035400069FD61A3D3E9002315F0B0FB32463B4689
:1035500015F060FD5EA3D3E9002315F0A9FB324608
:103560003B4615F057FD02460B462046294615F00E
:103570009DFB06460F4602460B462046294615F09F
:1035800049FD0022CDE900014FF080433046394625
:1035900015F08CFB02460B46DDE9000115F064FED8
:1035A000424606460F464B462046294615F032FD58
:1035B00042464B4615F07CFB02460B4630463946E8
:1035C00015F074FB22462B4615F070FB02460B46A5
:1035D0000020494915F06AFB8A44BAF5801FC0F201
:1035E00039815146DDE9042315F014FD52E44246C9
:1035F0004B464046494615F00DFD4BE4BAF1000F2D
:10360000BFF6D7ACDDE90034184604F1004141E4CF
:103610003A4B21F00048984540F3FF80384B0B446B
:1036200003430CD132463B4615F040FB02460B46A5
:10363000DDE9000115F06AFF00283FF4F3AEDDE993
:10364000040125A3D3E9002315F0E4FC22A3D3E968
:10365000002315F0DFFC1DE49FED217B8DED047B45
:1036600085E602460B460020234915F0FDFD2EE4B9
:103670009FED1D7B8DED087B8DED0E7B9FED027B1D
:1036800000278DED067BD8E4000000000000F03F2D
:10369000FE822B654715973C00000000432EE63F55
:1036A000EF39FAFE422EE63F396CA80C615C20BE71
:1036B000D0A4BE726937663EF16BD2C541BDBB3E38
:1036C0002CDE25AF6A56113F93BDBE166CC1663F16
:1036D0003E5555555555C53F59F3F8C21F6EA501C6
:1036E000000000000000F0BF00000000000000002B
:1036F000FFFF8F40FFFF0F000000F03FFFCB904027
:1037000000346F3F684B9E427FF750AC674B9E4240
:103710003FF7FDAB0022654B15F0C8FA52A3D3E981
:10372000002306460F4615F075FC51A3D3E900238C
:10373000804689463046394615F06CFC00228246A8
:103740008B465B4B3046394615F064FC02460B460F
:1037500049A1D1E9000115F0A9FA32463B4615F01E
:1037600059FC02460B460020524915F09FFA32469A
:10377000CDE902013B463046394615F04BFC024686
:103780000B46DDE9020115F045FC3DA3D3E900231A
:1037900015F040FC02460B465046594615F086FA95
:1037A00002460B4606460F464046494615F080FA4B
:1037B00042464B46002082468B4615F077FA024679
:1037C0000B463046394615F071FA80468946C5E504
:1037D00042464B460020354915F046FDFFF75ABBDF
:1037E000DDE9040128A3D3E9002315F013FC26A387
:1037F000D3E9002315F00EFCFFF74CBBBEF1000F20
:103800007FF453ABC3F1140347FA03F202FA03F354
:103810009F4223D07446FFF720BB264B98453FF7C5
:1038200001AEDDE90223924693462BE602460B46A3
:10383000FFF7B3BB9FED167B8DED087B9FED167BED
:103840008DED0E7B9FED167B4FF480278DED067B73
:10385000FFF7F3BB5A4601F04FFDC3E602F0010249
:10386000C2F10204FFF7F9BA000000604715F73F04
:1038700044DF5DF80BAE543E555555555555D53F73
:10388000FE822B654715F73F9C7500883CE4377E28
:103890000000004003B8E23F06D0CF43EBFD4C3EB2
:1038A000000000000000F83FFEFFEF3F0000F03F87
:1038B0000000D03F0000E03F2DE9F0479C4B21F095
:1038C00000479F4290B08046894640F38E80994BD6
:1038D0009F420C46924626DC00298BA3D3E90023A5
:1038E00040F3B08115F0E2F9934B9F4204460D4638
:1038F00000F0908086A3D3E9002315F0D7F90246A3
:103900000B46CAE900232046294615F0CFF980A3CB
:10391000D3E9002315F0CAF90125CAE902012846B6
:1039200010B0BDE8F087854B9F4240F39080844BF8
:103930009F4265DC3D15A5F21645A7EB05531946D8
:103940001F46064615F016FE15F0FEFA804689461B
:1039500042464B4630463946CDE90A8915F0A6F96C
:103960000022784B15F056FB8946804615F002FE82
:1039700015F0EAFA06460F4632463B4640464946AF
:10398000CDE90C6715F092F900226E4B15F042FB61
:1039900000220023CDE90E0115F0A4FD002800F05F
:1039A0006F81002330463946002215F09BFD002828
:1039B00014BF01230223644A019202212A46009186
:1039C0000AA8514600F08CFB002C054614DADAF800
:1039D0000420DAF80C3002F1004203F100434542C2
:1039E000CAF80420CAF80C3006E000200021C2E921
:1039F0000089C2E902010025284610B0BDE8F08721
:103A000002460B4615F052F90025CAE90201CAE93F
:103A10000001F1E740A3D3E9002315F047F940A3E3
:103A2000D3E900230D46044615F040F902460B4643
:103A3000CAE900232946204615F038F938A3D3E90E
:103A4000002315F033F90125CAE90201D4E713F088
:103A5000DDF935A3D3E900238046894615F0DAFA6B
:103A600000223A4B15F024F915F084FD054615F0B7
:103A70006BFA25A3D3E90023CDE9060115F0CAFAB4
:103A800002460B464046494615F010F920A3D3E9FB
:103A90000023CDE90201DDE9060115F0BBFA1F2D77
:103AA00080468946CDE9048954DC294B6A1E53F8C7
:103AB00022309F424ED002460B46DDE9020115F04E
:103AC000F5F880468946CAE9008942464B46DDE959
:103AD000020115F0EBF8DDE9042315F0E7F8002CFE
:103AE000CAE9020188DA09F1004401F100436D429C
:103AF000CAF80080CAF80440CAF80800CAF80C30B6
:103B00007AE700BFAFF3008000004054FB21F93F8B
:103B10003163621A61B4D03D0000601A61B4D03DD7
:103B20007370032E8A19A33B83C8C96D305FE43FCD
:103B3000FB21E93F7BD90240FB21F93FFB213941C1
:103B4000FFFFEF7F00007041B0B501000000E03FD3
:103B500030B50100DDE90423DDE9020115F0A6F826
:103B60003F15C1F30A53FB1A80468946102BCAE958
:103B70000089AADD58A3D3E90023DDE9060115F089
:103B800049FA8046894602460B46DDE9020115F0F6
:103B90008DF802460B46DDE90201CDE9082315F058
:103BA00085F842464B4615F081F84DA3D3E9002332
:103BB00080468946DDE9060115F02CFA42464B465F
:103BC00015F074F80B46CDE904010246DDE9080161
:103BD00015F06CF8C1F30A53FF1A80468946312F5D
:103BE000CAE900896CDD41A3D3E90023DDE90601C0
:103BF00015F010FADDE9088906460F4602460B4625
:103C00004046494615F052F802460B4640464946A2
:103C1000CDE9022315F04AF832463B4615F046F846
:103C200034A3D3E9002306460F46DDE9060115F06B
:103C3000F1F932463B4615F039F802460B46CDE91C
:103C400004233AE715F034F8274B9F4204460D460B
:103C500018D01FA3D3E9002315F02AF802460B461B
:103C6000CAE900232946204615F020F818A3D3E915
:103C7000002315F01DF84FF0FF35CAE90201BBE63D
:103C8000032398E614A3D3E9002315F011F814A335
:103C9000D3E900230D46044615F00AF802460B4608
:103CA000CAE900232946204615F000F80CA3D3E901
:103CB000002314F0FDFF4FF0FF35CAE902019BE637
:103CC0009DED087B8DED027BFFE600BFAFF300802A
:103CD0003163621A61B4D03D0000601A61B4D03D16
:103CE0007370032E8A19A33BFB21F93F0000002EBD
:103CF0008A19A33BC14920259A837B390000000023
:103D0000594A2DE9F84F21F00048904506460F46E4
:103D10002BDC564B0029B4BF554D564D98454FF0FE
:103D2000000410DC544B984570DC4DA3D3E900230C
:103D300014F0BEFF0022514B15F0FCFBD8B1304609
:103D40003946BDE8F88F4E4B98457CDD4D4B984584
:103D500044DD013398453ED03046394640A3D3E98F
:103D6000002315F057F9BDE8F88F02460B4614F012
:103D70009FFFBDE8F88F3046394613F047F801F051
:103D80007FF806460F4632463B463046394614F029
:103D90008FFF324682468B463B463046394615F009
:103DA00039F9002280468946344B3046394614F0B2
:103DB0007FFF02460B464046494615F055FA02463B
:103DC0000B465046594614F071FF22462B4615F01B
:103DD00021F9BDE8F88F2C4B9842BDD830463946C2
:103DE00013F014F80022234B15F014F9FEF714FC1D
:103DF00006460F4602460B462046294615F00AF9AC
:103E000032463B4615F006F9BDE8F88F12F0FEFF8A
:103E100001F036F81D4B984506460F46B3DD0022EB
:103E2000164B14F045FF02460B463046394615F056
:103E30001BFA32463B4614F03BFF22462B4615F058
:103E4000E9F8BDE8F88F12F0E1FFFEF7E5FB024666
:103E50000B462046294615F0DDF8BDE8F88F00BF77
:103E60003374AC3C1F7BAC7FFFFFEF7FFFFF35401F
:103E70000000E0BF0000E03FFFFF2F3E0000F03FEA
:103E8000412E8640CD3386407DF8B98FFFFFEF3F4E
:103E90002DE9F04F21F00048B8F1795F85B0064672
:103EA0000F4692469B466BDA15F064FB002800F043
:103EB000EA8032463B463046394615F0ABF874A3EB
:103EC000D3E9002304460D4615F0A4F872A3D3E904
:103ED000002314F0EDFE22462B4615F09BF870A34C
:103EE000D3E9002314F0E2FE22462B4615F092F8A7
:103EF0006DA3D3E9002314F0DBFE22462B4615F018
:103F000089F86BA3D3E9002314F0D0FE22462B4698
:103F100015F080F868A3D3E9002314F0C9FE224607
:103F20002B4615F077F8CDE900010022664B2046BC
:103F3000294615F06FF8DDE90023804689462046C2
:103F4000294615F067F8524604460D465B46304652
:103F5000394615F05FF802460B462046294614F014
:103F6000A5FE02460B464046494614F09FFE024617
:103F70000B460020554914F099FE05B0BDE8F08FBE
:103F800002460B4615F046F841A3D3E90023044648
:103F90000D4615F03FF840A3D3E9002314F088FE46
:103FA00022462B4615F036F83DA3D3E9002314F042
:103FB0007DFE22462B4615F02DF83BA3D3E90023C6
:103FC00014F076FE22462B4615F024F838A3D3E9E8
:103FD000002314F06BFE22462B4615F01BF836A387
:103FE000D3E9002314F064FE2B46224615F012F8A4
:103FF000374B9845CDE9000197DD364B984539DCC4
:10400000A8F500130022002030499046994614F08C
:104010004DFECDE9020100222B4B2046294614F02B
:10402000F9FF42464B4614F041FEDDE9002380468D
:1040300089462046294614F0EDFF524604460D46B7
:104040005B463046394614F0E5FF02460B462046F3
:10405000294614F02BFE02460B464046494614F012
:1040600025FE02460B46DDE9020114F01FFE05B0F5
:10407000BDE8F08F9FED127B4FF000088DED027BC5
:10408000DFF85490C7E71149002005B0BDE8F08F74
:10409000D43888BEE9FAA8BDC4B1B4BD9EEE213EB5
:1040A000AD529C804F7E923E9015CB19A001FA3EF6
:1040B0007751C1166CC1563F4C5555555555A53FC6
:1040C000000000000000E73F0000E03F0000F03F7C
:1040D0003233D33F0000E93F0000D23F0000000030
:1040E0002DE9F04FADF51B7D9F4CA49E9F4D54F8DC
:1040F000264007942646D41E85FB0475E417C4EBBE
:10410000A50424EAE4741D460A93631CA3EB83030D
:10411000013D02EBC30306932B460B940395651BED
:10412000F418049008911AD42C4400260027013476
:104130000DF18808DDF8949208E059F8250014F094
:1041400003FF0135A542E8E8020108D0002DF4DAAA
:10415000013530463946A542E8E80201F6D1079B11
:10416000002BC0F2DF83079B03F1010B0A9B22A9FE
:10417000DB001A4601EB03090093049B0DF5E47A7A
:1041800019460AEBCB0B01EB0208039B002BC0F294
:10419000F582049C4D460026002775E90223F4E8C9
:1041A000020114F037FF02460B463046394614F040
:1041B0007FFD444506460F46EFD1EAE80267DA453F
:1041C00009F10809E1D107990098049C009101F1D7
:1041D0008043013B9B0020441A1F83460EA80244E3
:1041E00003440C920D93009A9AA901EBC203002A92
:1041F00053E9284529DD0DF5E47A0AEBC2080DF1F3
:10420000340900225A4B2046294614F003FF15F0CA
:10421000B1F914F099FE0022564B06460F4614F0F1
:10422000F9FE02460B462046294614F03FFD15F0E4
:10423000A1F978E9022349F8040F3946304614F011
:1042400037FDD04504460D46DBD1DDF818902046F9
:1042500029464A4601F050F800224FF07F530446A9
:104260000D4614F0D7FEFCF75FFD0022424B14F020
:10427000D1FE02460B462046294614F017FD0D4696
:10428000044615F077F9804614F05EFE0B460246B0
:104290002946204614F00AFD4B46002B06460F46E1
:1042A00040F3F980009A0EA9013AC9F1180351F8B8
:1042B000225045FA03F101FA03F30EA8EB1A40F875
:1042C0002230C9F11705884443FA05F5002D6DDD4C
:1042D000009B002B08F1010840F36F820E9C002C1C
:1042E00040F01683009B012B40F38F820EAA01231E
:1042F00052F8044F002C00F08382581C0EAAC4F11F
:10430000807442F82340009A824219DD0EAA0EAC56
:1043100052F820106FF07F42511A44F82010009993
:10432000023399420CDD1046009A0EA901EB83037B
:1043300001EB82011A68821A43F8042B8B42F9D1EF
:10434000069B002B1ADD069B012B4FF0010440F069
:104350003C82009B5A1E0EAB0EA953F82230C3F3C9
:10436000160341F822303CE250BA0100ABAAAA2A57
:104370000000703E0000704100002040022D15D169
:1043800032463B460020924914F090FC06460F4608
:10439000069A8F49002000F0AFFF02460B463046D8
:1043A000394614F083FC022506460F4600220023FE
:1043B0003046394615F096F8002800F03782009A0A
:1043C000079B501E83420FDC02F18043013B0EAA83
:1043D0000D9C02EB8303002253F80419A34242EA26
:1043E0000102F9D1002A67D1079B0EAA013B52F8BE
:1043F0002330002B40F018820C9A012352F8041944
:1044000001330029FAD0009AD31802F1010A9A4523
:1044100009933DDC009B0A990B9A0B4409990AEB1E
:104420000208994622AB08F1804803EBC9098B18B2
:10443000A59A08F1FF3802EB880872AA02EBCA0AB3
:10444000A59A02EB8303009358F8040F14F07CFD47
:10445000039B002BE9E802014FF000064FF0000734
:1044600011DB049C4D4675E90223F4E8020114F0C7
:10447000D1FD02460B463046394614F019FC5C4526
:1044800006460F46EFD1009B9845EAE80267DBD16C
:10449000099B0093A7E606D1009B0EAA013B52F8A8
:1044A0002350ED1512E700224A4B15F039F8002889
:1044B00040F06E81054679E70EA9039551F820304A
:1044C0000699CDF8248018390246009006916BB900
:1044D00000F18043013B0EA800EB830353F804096D
:1044E000013A18390028F9D000920691069A384905
:1044F000002000F001FF009B002B04460D46C0F297
:10450000F781DA0072A901EB020B06920EAA02EB08
:104510008306DFF8C4904FF000080BF1080704365B
:1045200056F8040D14F010FD22462B4614F072FDCF
:104530004B4667E9020142462046294614F06AFDCF
:104540000EAB9E4204460D46EAD14AACDDF81C9003
:1045500004944FF0000AB9F1000FC0F22B81DFF88C
:104560007C805D4618A1D1E90001002600270024C7
:1045700003E0544510DCF8E80201F5E8022314F0EA
:1045800049FD02460B463046394614F091FB013492
:10459000A14506460F46ECDA049B03EBCA03ABF1D8
:1045A000080BC3E9006770AB9B450AF1010AD2D141
:1045B000A49B049C032B00F28980DFE803F0C58EE6
:1045C0008E1100BFAFF3008000000040FB21F93FD7
:1045D0000000F03F0000E03F0000703EF0A201004C
:1045E000009B002B40F38181069A04EB020ADAE972
:1045F000008902F1080525440DF5987B1AED027B30
:1046000042464B4651EC170B8DED047B14F050FBEA
:1046100006460F4602460B46DDE9040114F046FB50
:1046200042464B4614F044FB65E902015D45B04645
:10463000B9466AE90267E1D1009B012B40F355813D
:10464000069BE518D5E9008903F1080B04EB0B0A7A
:1046500015ED027B42464B4651EC170B8DED007B6E
:1046600014F026FB06460F4602460B46DDE9000124
:1046700014F01CFB4B46424614F01AFB6AE9020197
:104680004EAB5345B046B94665E90267E0D100201C
:10469000002104EB0B0575E9022314F009FBAA4580
:1046A000F9D1039B002B00F00A816268E368089F40
:1046B0002568A4683D6002F1004203F1004301F166
:1046C00000417A60FB60BC6038617961099B03F04E
:1046D00007000DF51B7DBDE8F08F069D08352544CC
:1046E0000020002175E9022314F0E2FAA542F9D175
:1046F000039B002B00F0D280089E024601F100438C
:1047000086E80C000B460246D4E9000114F0CEFA0C
:10471000009B002B0BDD4CAD0124F5E8022314F0C7
:10472000C7FA009B0134A342F7DA039B13B101F1EE
:1047300000431946089BC3E90201099B03F00700E7
:104740000DF51B7DBDE8F08F069D0835002000218A
:10475000254475E9022314F0ABFAAC42F9D1039B6E
:1047600013B101F100431946089BC3E90001099BFD
:1047700003F007000DF51B7DBDE8F08F0026002734
:10478000EAE80267DA4509F108097FF4FEAC1AE5A8
:10479000009B002B08F10108C8BF02253FF79EAD22
:1047A00032463B460020614914F080FA0225064655
:1047B0000F46FBE500260027EEE6069B002B27DDD3
:1047C0000024069B012B3FF4C4AD022B09D1009BB2
:1047D0005A1E0EAB0EA953F82230C3F3150341F84D
:1047E0002230022D7FF4E2AD32463B4600204F4995
:1047F00014F05CFA06460F46002C3FF4D7ADC7E52F
:104800000099013399427FF473AD069B002BD8DCED
:10481000022D7FF4CBAD32463B460020434914F0D5
:1048200045FA06460F46C1E50123ECE53946069FE9
:1048300003957A423046CDF8248000F05DFD0022D9
:104840003B4B04460D4614F06BFE002843D000227B
:10485000384B2046294614F0DDFB14F08BFE06464B
:1048600014F072FB0022324B14F0D4FB02460B46CC
:104870002046294614F01AFA14F07CFE00990B46E3
:1048800001331A4600933B46183306930B460EA994
:1048900041F82300134641F8236027E6089B0246AF
:1048A000C3E900010B46D4E9000114F0FFF9009BB5
:1048B000002B3FF730AF089BC3E902013DE7D4E985
:1048C0000067D4E90223089DC5E90401C5E9006732
:1048D000C5E90223FAE62946204614F04BFE009A69
:1048E0000EA941F8220001E64AAC00200021D8E6DA
:1048F000A49B032B3FF6EAAE01A252F823F000BFBF
:104900001F4900001749000017490000E94800004E
:1049100001200023F2E4002000214AACE8E6002058
:1049200000211CE70A9BDB0000934CE40000F03FF1
:10493000000070410000703E2DE9F04F21F000466C
:10494000B6F1795F85B004460D469046994604DA83
:1049500014F010FE002800F0858022462B462046E9
:10496000294614F057FB06460F4602460B462046E2
:10497000294614F04FFB41A3D3E9002382468B461E
:104980003046394614F046FB3EA3D3E9002314F029
:104990008DF932463B4614F03DFB3CA3D3E900239E
:1049A00014F086F932463B4614F034FB39A3D3E9C0
:1049B000002314F07BF932463B4614F02BFB37A35F
:1049C000D3E9002314F074F90E9BCDE900019BB3E9
:1049D0000022294B4046494614F01CFBDDE9002328
:1049E000CDE902015046594614F014FB02460B462D
:1049F000DDE9020114F05AF932463B4614F00AFB95
:104A000042464B4614F052F919A3D3E90023064657
:104A10000F465046594614F0FDFA02460B46304602
:104A2000394614F045F902460B462046294614F053
:104A30003DF905B0BDE8F08F02460B4630463946D9
:104A400014F0E8FA0AA3D3E9002314F02FF9524630
:104A50005B4614F0DFFA22462B4614F029F905B024
:104A6000BDE8F08F2046294605B0BDE8F08F00BFB5
:104A7000495555555555C53F0000E03F7CD5CF5AA7
:104A80003AD9E53DEB9C2B8AE6E55A3E7DFEB157CF
:104A9000E31DC73ED561C119A0012A3FA6F8101138
:104AA0001111813F000000002DE9F04FBE4C21F0B4
:104AB000004687B0A64282468B460F46CDE90023CA
:104AC0001BDC14F057FD002837D153461E43109BC2
:104AD0000133334300F0B381109B012B00F0C881F8
:104AE00052465B460020B14914F0BEFB04460D4619
:104AF0002046294607B0BDE8F08FAD4B9E421CDD35
:104B00000029C0F2A98152465B4687A1D1E9000184
:104B100014F0CCF8DDE9002304460D4684A1D1E968
:104B2000000114F0C3F89FED847B22462B468DEDE7
:104B3000007B14F0BDF882468B4652465B465046D9
:104B4000594614F067FA02460B468046894614F02F
:104B500061FA424604460D464B465046594614F00B
:104B600059FA77A3D3E90023CDE90201204629466B
:104B700014F050FA74A3D3E9002314F099F82246F4
:104B80002B4614F047FA72A3D3E9002314F090F8EF
:104B900022462B4614F03EFA6FA3D3E9002314F00B
:104BA00087F822462B4614F035FA6DA3D3E900238B
:104BB00014F07EF822462B4614F02CFA6AA3D3E9AF
:104BC000002314F075F842464B4614F023FA68A30C
:104BD000D3E90023CDE904012046294614F01AFA4E
:104BE00065A3D3E9002314F063F822462B4614F0A2
:104BF00011FA63A3D3E9002314F05AF822462B4696
:104C000014F008FA60A3D3E9002314F051F8224607
:104C10002B4614F0FFF95EA3D3E9002314F048F803
:104C200022462B4614F0F6F95BA3D3E9002314F0D7
:104C30003FF802460B46DDE9040114F039F8DDE9DE
:104C4000022314F0E7F9DDE9004522462B4614F073
:104C50002FF842464B4614F0DDF902460B4620463B
:104C6000294614F025F84EA3D3E9002304460D4647
:104C7000DDE9020114F0CEF922462B4614F018F8B3
:104C80000B460246804689465046594614F010F8B5
:104C9000474B9E4204460D4600F38E80109B012B2D
:104CA0003BD002460B460020404914F0DDFA0024B8
:104CB00006460F462046294652465B46CDE9006728
:104CC000CDE90201009413F0F1FFDDE900AB0246EB
:104CD0000B464046494613F0E9FF52465B4614F046
:104CE00099F9524604460D465B46DDE9020114F08F
:104CF00091F900222F4B13F0DBFF02460B462046B2
:104D0000294613F0D5FF32463B4614F083F952464C
:104D10005B4613F0CDFF04460D462046294607B0FA
:104D2000BDE8F08FAFF30080182D4454FB21E93F1C
:104D3000075C143326A6813C000000000000000040
:104D4000D47ABF74702AFB3EE9A7F0320FB8123F45
:104D500068108D1AF726303F1583E0FEC8DB573FF9
:104D600093846EE9E326823FFE41B31BBAA1AB3FB9
:104D7000735360DBCB75F3BEA69237A0887E143FD9
:104D80000165F2F2D844433F280356C9226D6D3FB6
:104D900037D60684F464963F7AFE10111111C13F94
:104DA000635555555555D53FFFFF2F3E0000F0BFC9
:104DB0002794E53F0000F03F109814F0C5F8224614
:104DC000CDE900012B462046294614F023F9DDE900
:104DD0000023CDE902012046294613F069FF02466F
:104DE0000B46DDE9020114F03FFA42464B4613F050
:104DF0005DFF02460B465046594613F057FF0246E8
:104E00000B4613F055FF02460B46DDE9000113F097
:104E10004DFF0446B81700F00200C0F101000D4636
:104E200014F092F802460B462046294614F0F2F898
:104E300004460D462046294607B0BDE8F08F50468F
:104E4000594611F0E3FF02460B4600200A4914F0D0
:104E50000BFA04460D4660E7DDE9004501F100412B
:104E6000224605F1004382468B46CDE900234AE6FF
:104E700054465D4651E700BF0000F03F00000000CF
:104E80002DE9F04FD24A21F00043934285B082468B
:104E90008B460C462DD9CF4A93421AD8002C80F26B
:104EA0001681B5A3D3E900235046594613F000FFFD
:104EB0000022002314F020FBC0B9B1A3D3E90023E2
:104EC0005046594614F0A6F802460B460020C24947
:104ED00008E1C24A934240F2D0800346C1F3130274
:104EE000134340F0F481002980F2C4800020BC49C3
:104EF000C0E0BC4A934200F22981BB4A934240F28F
:104F0000DE80002301930022B84B5046594614F02E
:104F100081F806460F4602460B465046594614F0A5
:104F200079F899A3D3E9002304460D4614F072F8EA
:104F300097A3D3E9002313F0BBFE22462B4614F0BF
:104F400069F895A3D3E9002313F0B0FE22462B465F
:104F500014F060F892A3D3E9002313F0A9FE2246CF
:104F60002B4614F057F890A3D3E9002313F09EFECC
:104F700022462B4614F04EF800229D4B13F098FE6B
:104F80008046894602460B463046394614F042F8C0
:104F900002460B460020974913F088FE064602465B
:104FA0000B460F464046494613F080FE3246804687
:104FB00089463B465046594614F02CF802460B46AB
:104FC00000208D4913F072FE02460B4640464946CA
:104FD00014F04AF922462B4614F01CF8019E0246B2
:104FE0000B46002E38D0DDE9026732463B4613F00F
:104FF0005DFE52465B4614F00DF832463B4613F018
:1050000055FE2B46224613F051FE019B0133064606
:105010000F4600F00F81019B012B00F0F180019BF6
:105020000133392B39D8019B132B40F31281019C9A
:10503000C4F57F75033500222B0513F039FE0246B7
:105040000B465046594613F031FE0022684B13F0D0
:105050002FFE01EB04510DE05046594613F0DAFFE4
:1050600022462B4613F022FE02460B465046594676
:1050700013F01CFE05B0BDE8F08F4DA3D3E900236B
:1050800014F058FA00283FF409AF4BA3D3E90023EA
:105090001046194613F0BEFFECE752465B4613F08C
:1050A00005FE02460B460020514913F0FFFD019A10
:1050B0004F4B01EB0251002213F0F8FDDAE73EA35B
:1050C000D3E9002313F0F4FD02460B46CAE72CA3F4
:1050D000D3E900235046594613F09CFF0B46434941
:1050E0000246002013F0E4FD14F044FA019013F09E
:1050F0002BFF33A3D3E9002306460F4613F08AFFA4
:1051000002460B465046594613F0D0FD2EA3D3E974
:105110000023804689463046394613F07BFF064619
:105120000F4632463B464046494613F0BFFD024615
:105130000B4682468B464046494613F0B7FD324641
:105140003B4613F0B3FDCDE90201DCE62B4A934266
:1051500000F2958000291AA3D3E90023C0F2AC80A5
:1051600013F0A4FD012380468946019316A7D7E9D1
:105170000067D6E7AFF3008059F3F8C21F6EA501B0
:10518000FE822B654715F73F2DC3096EB7FD8ABE1A
:105190003952E686CACFD03EB7DBAA9E19CE143F5D
:1051A0008555FE19A0015A3FF41011111111A13FAC
:1051B000EF39FAFE422E86409C7500883CE4377E2B
:1051C0000000E0FE422EE63F763C7935EF39EA3DBD
:1051D00079684340412E86400000E0BFFFFFEF7F2B
:1051E0000000F0BF422ED63FFFFF8F3C0000E03FA3
:1051F0000000F03F0000084000001840B1A2F03F5E
:105200000022394B5046594614F076F9002844D014
:10521000504659460022354B13F04AFD02460B46D4
:105220003046394613F042FD00224FF0404313F060
:10523000F1FE1FE702460B465046594613F036FD75
:1052400000222A4B13F0E6FE0022284B13F02EFD1D
:1052500010E7019C4FF400132341C3F17F575246DE
:105260005B4613F023FD002607F5401702460B4668
:105270003046394613F01AFD01EB0451FAE616A345
:10528000D3E9002313F0C6FE002C02460B464FF074
:105290000000FFF61CAE154924E732463B46504657
:1052A000594613F003FD02460B4613F001FD0022A0
:1052B0000F4B13F0FDFCDDE613F0FAFC4FF0FF336B
:1052C00080468946019306A7D7E9006729E7024689
:1052D0000B4613F0EDFCCDE6FE822B654715F73F3C
:1052E000763C7935EF39EABD0000D0BF0000E03FE1
:1052F0000000F03F00000000F8B5C1F30A56044674
:105300000D460B4617460EBB21F00043034386466D
:1053100025D00022344B13F07DFE344A97420446D8
:105320000D460B462ADBC1F30A56363E3E4440F298
:10533000FE72964228DC002E12DD23F0FF4323F498
:10534000E00343EA065520462946F8BD40F2FF72C5
:105350009642EBD102460B4613F0AAFCF8BDF8BD0D
:1053600016F1350F1DDA4CF250339F4222462B4680
:1053700025DC19A1D1E9000113F00AFC16A3D3E939
:10538000002313F047FEF8BD22462B4614A1D1E9B5
:10539000000113F0FDFB12A3D3E9002313F03AFE42
:1053A000F8BD23F0FF4323F4E003363643EA065505
:1053B0002046294600220E4B13F02CFEF8BD08A112
:1053C000D1E9000113F0E4FB05A3D3E9002313F0B6
:1053D00021FEF8BDAFF3008059F3F8C21F6EA5019E
:1053E0009C7500883CE4377E00005043B03CFFFFD2
:1053F0000000903C10B5054C237833B9044B13B131
:105400000448AFF300800123237010BD1005002075
:1054100000000000A8BB01000C4B43B10C480D4933
:1054200010B5AFF300800C48036823B910BD0A48DB
:10543000036833B97047094B002BF7D0BDE8104023
:105440001847064B002BF5D0184700BF000000009E
:10545000A8BB01001405002010020020000000007D
:10546000154B002B08BF134B9D46A3F5803A002136
:105470008B460F461348144A121A08F043FD0F4B8F
:10548000002B00D098470E4B002B00D098470020EF
:10549000002104000D000D48002802D00C48AFF395
:1054A000008013F0ABFB2000290005F049F913F050
:1054B00091FB00BF00000800000002200000000077
:1054C0000000000000040020A00C002000000000EC
:1054D0000000000070B504460E4600F0D1F888B117
:1054E00003681B6B05469847082C0CD0A4F10903F0
:1054F000012B14D93246214610230D20BDE87040FF
:1055000004F0DEB870BD2B6828469B6A98470228D5
:10551000F0DC2B6828465B6A04219847EAE72B6891
:1055200028469B6A98470528E4DC2B6828465B6A76
:1055300008219847DEE700BF30B52DED028B83B020
:10554000054600F09DF8044640B103681B6B984780
:10555000032D50D8DFE805F0373F47080190019848
:1055600003B0BDEC028B30BD20460CF0C7F807EE4F
:10557000900A2046F8EEE78A0CF0CEF807EE900A83
:105580002046B8EEE78A0CF0D5F868EE087A07EE08
:10559000100AE8EEA87AB8EEC77AE7EE077AF5EED9
:1055A000407AF1EE10FAB1EEE78A03D517EE900AD1
:1055B00012F078F9FDEEC87ACDED017A019803B0CA
:1055C000BDEC028B30BD204603B0BDEC028BBDE8C4
:1055D00030400CF093B8204603B0BDEC028BBDE820
:1055E00030400CF099B8204603B0BDEC028BBDE80A
:1055F00030400CF09FB800230193B0E738B5054662
:1056000000F03EF858B103681B6B0446984745B15B
:10561000012D04D12046BDE83840FBF79DB800209D
:1056200038BD2046BDE83840FBF776B810B50446D3
:1056300000F026F828B1036821465B6ABDE81040F7
:10564000184710BD0048704716FCFFFF704700BFA9
:1056500010B5034B036004460BF04CFE204610BD12
:1056600098B0010010B5054B036004460BF042FEF4
:10567000204614F011FA204610BD00BF98B001007A
:105680002DE9F043C04C236885B01BB1986805B084
:10569000BDE8F0834FF0FF31012001F0FFFCC0B204
:1056A00004F000FB002800F0ED800C2014F0F6F967
:1056B00003210646512001F0F1FCDFF8FCE2B34B78
:1056C000054605F00F07C5F3031815F4807518BFDC
:1056D0007346AF48394642460AF0ACFF2A1C18BF51
:1056E00001223946434630460DF0F6FF0023A94813
:1056F000B3600AF09FFF4FF0FF31032001F0CEFCB2
:10570000C0B204F0CFFA4FF0FF310546022001F09D
:10571000C5FCC0B204F0C6FA002D00F09A80002843
:1057200000F097800146284604F0ACF807460028B0
:1057300000F0A4804FF0FF31462001F0AFFC32288A
:1057400080462BD028DD382869D068283FD14FF01B
:10575000FF31012001F0A2FCC0B204F0A3FA81469F
:105760005C2014F09BF90523054601934A46CDF8C9
:105770000080394633460CF081FF2846B06003684C
:10578000DB6A9847B06803681B6B984782480AF049
:1057900051FF2660B0687AE7302818D14FF0FF310A
:1057A000012001F07BFCC0B204F07CFA814650205D
:1057B00014F074F91FFA88F1054605234A46009152
:1057C0000193394633460CF02BFD2846D6E73A685C
:1057D0000125002301950095D2F82480B3600F22A3
:1057E0000DF10F0332213846C047002856D14FF043
:1057F0003208414669480AF01DFF4FF0FF31012091
:1058000001F04CFCC0B204F04DFA8146502014F077
:1058100045F9052305464A46CDF80080D0E74FF00C
:10582000FF31012001F03AFCC0B204F03BFA81469E
:10583000502014F033F9052305464A46CDF8008080
:105840003946019333460CF0F5FD554B2B60284645
:1058500094E754480AF0EEFE4FF0FF31192001F0B2
:105860001DFCC0B204F01EFA4FF0FF3105461820AF
:1058700001F014FCC0B204F015FA53E74A480AF0EC
:10588000D9FE86E74FF0FF31032001F007FCC0B2DC
:1058900004F008FA00287FF408AFF8E63B680195A9
:1058A0000095D3F824800F220DF10F0330213846E4
:1058B000C04718B94FF0300841469BE73B68019557
:1058C0000095D3F824800D220DF10F0338213846BE
:1058D000C047C0B9382131480AF0ACFE4FF0FF3163
:1058E000284601F0DBFBC0B204F0DCF98046502012
:1058F00014F0D4F84FF0050E3823054642463946D9
:105900008DE808409EE73A6801950095D2F824801A
:105910000DF10F03752268213846C047E0B96821B0
:105920001E480AF087FE4FF0FF31284601F0B6FB13
:10593000C0B204F0B7F980465C2014F0AFF84FF025
:10594000050E682305468DE8084042463946334631
:105950000CF094FE284611E714480AF06BFEB0687C
:1059600000287FF40CAF4FF0FF31032001F096FBCD
:10597000C0B204F097F918B10D480AF05BFE08E7D1
:105980000C480AF057FE04E72C05002080A3010014
:1059900088A30100A8A3010040A4010064A40100A1
:1059A00040A30100B8A30100CCA3010050A4010052
:1059B000E4A3010020A4010078A3010008B501F0D0
:1059C0009FFCFBF76DFCBDE8084001F0FDB900BF8E
:1059D00008B501F095FCFBF7D3FCBDE8084001F0E9
:1059E000F3B900BF08B501F08BFC11F085FABDE8F2
:1059F000084001F0E9B900BF08B501F081FC11F0E1
:105A00008DFEBDE8084001F0DFB900BF08B501F028
:105A100077FCFBF755FCBDE8084001F0D5B900BFA5
:105A200008B501F06DFC11F0A5FCBDE8084001F0DF
:105A3000CBB900BF08B501F063FCFAF7ADFEBDE8D5
:105A4000084001F0C1B900BF08B501F059FC11F0E0
:105A5000E5FBBDE8084001F0B7B900BF70B5049E92
:105A600096420C4628DB15466BB1002A00EB02017A
:105A700007DD2046A21811F8013D00F8013B9042D5
:105A8000F9D1002070BD042A0FD0022A02D110F0F3
:105A9000010306D001462A46204607F043F80020BD
:105AA00070BD02880A80184670BD10F00303F1D162
:105AB00002680A60184670BD0846002108F022FA04
:105AC0004FF0FF3070BD00BF0830704740B1002973
:105AD00005DB4368994202DA0844007A70470020E7
